:020000040800F2
:1000000000500020394D00086D4400086F4400087E
:1000100071440008734400087544000800000000A3
:10002000000000000000000000000000774400080D
:1000300079440008000000007B4400087D4400086B
:10004000814D0008814D0008814D0008814D000858
:10005000814D0008814D0008814D0008814D000848
:10006000814D0008814D0008814D0008814D000838
:10007000814D0008814D0008814D0008814D000828
:10008000814D0008814D0008814D0008814D000818
:1000900081440008814D0008814D0008814D000811
:1000A000814D0008814D0008814D0008814D0008F8
:1000B00091440008814D0008814D0008814D0008E1
:1000C000814D0008814D0008814D0008814D0008D8
:1000D000814D0008814D0008814D0008814D0008C8
:1000E000814D0008814D0008814D0008000000008E
:1000F0000000000000000000000000000000000000
:0C01000000000000000000005FF808F1A3
:1001100010B5054C237833B9044B13B10448AFF341
:1001200000800123237010BDC401002000000000E6
:100130005056000808B5034B1BB103490348AFF301
:10014000008008BD00000000C801002050560008D3
:1001500081F0004102E000BF83F0004330B54FEA78
:1001600041044FEA430594EA050F08BF90EA020FE5
:100170001FBF54EA000C55EA020C7FEA645C7FEA78
:10018000655C00F0E2804FEA5454D4EB5555B8BF9B
:100190006D420CDD2C4480EA020281EA030382EA0C
:1001A000000083EA010180EA020281EA0303362D9E
:1001B00088BF30BD11F0004F4FEA01314FF4801C71
:1001C0004CEA113102D0404261EB410113F0004F83
:1001D0004FEA03334CEA133302D0524263EB43033A
:1001E00094EA050F00F0A780A4F10104D5F1200ED8
:1001F0000DDB02FA0EFC22FA05F2801841F1000133
:1002000003FA0EF2801843FA05F359410EE0A5F106
:1002100020050EF1200E012A03FA0EFC28BF4CF037
:10022000020C43FA05F3C01851EBE37101F00045ED
:1002300007D54FF0000EDCF1000C7EEB00006EEBFA
:100240000101B1F5801F1BD3B1F5001F0CD3490884
:100250005FEA30004FEA3C0C04F101044FEA4452DB
:1002600012F5800F80F09A80BCF1004F08BF5FEA62
:10027000500C50F1000041EB045141EA050130BD42
:100280005FEA4C0C404141EB010111F4801FA4F1E5
:100290000104E9D191F0000F04BF01460020B1FA3A
:1002A00081F308BF2033A3F10B03B3F120020CDA72
:1002B0000C3208DD02F1140CC2F10C0201FA0CF050
:1002C00021FA02F10CE002F11402D8BFC2F1200CB5
:1002D00001FA02F120FA0CFCDCBF41EA0C0190406B
:1002E000E41AA2BF01EB0451294330BD6FEA0404B4
:1002F0001F3C1CDA0C340EDC04F11404C4F120029F
:1003000020FA04F001FA02F340EA030021FA04F3B0
:1003100045EA030130BDC4F10C04C4F1200220FA07
:1003200002F001FA04F340EA0300294630BD21FA45
:1003300004F0294630BD94F0000F83F4801306BF0B
:1003400081F480110134013D4EE77FEA645C18BFFF
:100350007FEA655C29D094EA050F08BF90EA020F96
:1003600005D054EA000C04BF1946104630BD91EA8E
:10037000030F1EBF0021002030BD5FEA545C05D191
:100380004000494128BF41F0004130BD14F58004D0
:100390003CBF01F5801130BD01F0004545F0FE4144
:1003A00041F470014FF0000030BD7FEA645C1ABF79
:1003B000194610467FEA655C1CBF0B46024650EAB0
:1003C000013406BF52EA033591EA030F41F40021DC
:1003D00030BD00BF90F0000F04BF0021704730B562
:1003E0004FF4806404F132044FF000054FF0000137
:1003F00050E700BF90F0000F04BF0021704730B5F8
:100400004FF4806404F1320410F0004548BF4042CC
:100410004FF000013EE700BF42004FEAE2014FEA21
:1004200031014FEA02701FBF12F07F4393F07F4FFC
:1004300081F06051704792F0000F14BF93F07F4F2E
:10044000704730B54FF4607401F0004521F0004171
:1004500020E700BF50EA010208BF704730B54FF0F7
:1004600000050AE050EA010208BF704730B511F0FC
:10047000004502D5404261EB41014FF4806404F134
:1004800032045FEA915C3FF4DCAE4FF003025FEAB6
:10049000DC0C18BF03325FEADC0C18BF033202EB3E
:1004A000DC02C2F1200300FA03FC20FA02F001FA98
:1004B00003FE40EA0E0021FA02F11444C1E600BF37
:1004C00070B54FF0FF0C4CF4E06C1CEA11541DBFEA
:1004D0001CEA135594EA0C0F95EA0C0F00F0DEF8B5
:1004E0002C4481EA030621EA4C5123EA4C5350EA9A
:1004F000013518BF52EA033541F4801143F48013EB
:1005000038D0A0FB02CE4FF00005E1FB02E506F07B
:100510000042E0FB03E54FF00006E1FB03569CF0D0
:10052000000F18BF4EF0010EA4F1FF04B6F5007FD6
:1005300064F5407404D25FEA4E0E6D4146EB060648
:1005400042EAC62141EA55514FEAC52040EA5E50D1
:100550004FEACE2EB4F1FD0C88BFBCF5E06F1ED87B
:10056000BEF1004F08BF5FEA500E50F1000041EBB2
:10057000045170BD06F0004646EA010140EA02005F
:1005800081EA0301B4EB5C04C2BFD4EB0C0541EA81
:10059000045170BD41F480114FF0000E013C00F396
:1005A000AB8014F1360FDEBF002001F0004170BDBA
:1005B000C4F10004203C35DA0C341BDC04F11404D3
:1005C000C4F1200500FA05F320FA04F001FA05F25F
:1005D00040EA020001F0004221F0004110EBD3702C
:1005E00021FA04F642EB06015EEA430E08BF20EA58
:1005F000D37070BDC4F10C04C4F1200500FA04F3FB
:1006000020FA05F001FA04F240EA020001F000418C
:1006100010EBD37041F100015EEA430E08BF20EAFF
:10062000D37070BDC4F1200500FA05F24EEA020E47
:1006300020FA04F301FA05F243EA020321FA04F076
:1006400001F0004121FA04F220EA020000EBD3702D
:100650005EEA430E08BF20EAD37070BD94F0000F2D
:100660000FD101F00046400041EB010111F4801F61
:1006700008BF013CF7D041EA060195F0000F18BF12
:10068000704703F00046520043EB030313F4801F4E
:1006900008BF013DF7D043EA0603704794EA0C0F08
:1006A0000CEA135518BF95EA0C0F0CD050EA41061E
:1006B00018BF52EA4306D1D181EA030101F000419B
:1006C0004FF0000070BD50EA410606BF10461946C3
:1006D00052EA430619D094EA0C0F02D150EA0136CF
:1006E00013D195EA0C0F05D152EA03361CBF104610
:1006F00019460AD181EA030101F0004141F0FE41AF
:1007000041F470014FF0000070BD41F0FE4141F432
:10071000780170BD70B54FF0FF0C4CF4E06C1CEA32
:1007200011541DBF1CEA135594EA0C0F95EA0C0FE7
:1007300000F0A7F8A4EB050481EA030E52EA0335A2
:100740004FEA013100F088804FEA03334FF08055C3
:1007500045EA131343EA12634FEA022245EA1115F0
:1007600045EA10654FEA00260EF000419D4208BFA1
:10077000964244F1FD0404F5407402D25B084FEA4E
:100780003202B61A65EB03055B084FEA32024FF4FA
:1007900080104FF4002CB6EB020E75EB030E22BF57
:1007A000B61A754640EA0C005B084FEA3202B6EB17
:1007B000020E75EB030E22BFB61A754640EA5C00C6
:1007C0005B084FEA3202B6EB020E75EB030E22BF56
:1007D000B61A754640EA9C005B084FEA3202B6EB57
:1007E000020E75EB030E22BFB61A754640EADC0016
:1007F00055EA060E18D04FEA051545EA16754FEA78
:1008000006164FEAC30343EA52734FEAC2025FEA95
:100810001C1CC0D111F4801F0BD141EA00014FF024
:1008200000004FF0004CB6E711F4801F04BF0143F5
:100830000020B4F1FD0C88BFBCF5E06F3FF6AFAE11
:10084000B5EB030C04BFB6EB020C5FEA500C50F1A1
:10085000000041EB045170BD0EF0004E4EEA113124
:1008600014EB5C04C2BFD4EB0C0541EA045170BD2B
:1008700041F480114FF0000E013C90E645EA060E6F
:100880008DE60CEA135594EA0C0F08BF95EA0C0F9D
:100890003FF43BAF94EA0C0F0AD150EA01347FF4E5
:1008A00034AF95EA0C0F7FF425AF104619462CE7BC
:1008B00095EA0C0F06D152EA03353FF4FDAE10461F
:1008C000194622E750EA410618BF52EA43067FF470
:1008D000C5AE50EA41047FF40DAF52EA43057FF400
:1008E000EBAE12E74FEA4102B2F1E04324BFB3F5A9
:1008F000001CDCF1FE5C0DD901F0004C4FEAC00297
:100900004CEA5070B2F1004F40EB830008BF20F07A
:100910000100704711F0804F21D113F13872BCBF34
:1009200001F00040704741F480114FEA5252C2F189
:100930001802C2F1200C10FA0CF320FA02F018BFD2
:1009400040F001004FEAC1234FEAD32303FA0CFC25
:1009500040EA0C0023FA02F34FEA4303CCE77FEAB4
:10096000625307D150EA01331EBF4FF0FE4040F4FE
:100970004000704701F0004040F0FE4040F40000AD
:10098000704700BF80F0004002E000BF81F00041EE
:1009900042001FBF5FEA410392EA030F7FEA226C25
:1009A0007FEA236C6AD04FEA1262D2EB1363C1BFB5
:1009B000D218414048404140B8BF5B42192B88BF24
:1009C000704710F0004F40F4000020F07F4018BF47
:1009D000404211F0004F41F4000121F07F4118BF67
:1009E000494292EA030F3FD0A2F1010241FA03FC0F
:1009F00010EB0C00C3F1200301FA03F100F00043F7
:100A000002D5494260EB4000B0F5000F13D3B0F1BE
:100A1000807F06D340084FEA310102F10102FE2A2D
:100A200051D2B1F1004F40EBC25008BF20F001009D
:100A300040EA03007047490040EB000010F4000F4B
:100A4000A2F10102EDD1B0FA80FCACF1080CB2EBDE
:100A50000C0200FA0CF0AABF00EBC250524218433D
:100A6000BCBFD0401843704792F0000F81F40001E2
:100A700006BF80F400000132013BB5E74FEA4103B5
:100A80007FEA226C18BF7FEA236C21D092EA030F21
:100A900004D092F0000F08BF0846704790EA010F9B
:100AA0001CBF0020704712F07F4F04D1400028BFC8
:100AB00040F00040704712F100723CBF00F50000AA
:100AC000704700F0004343F0FE4040F400007047E0
:100AD0007FEA226216BF08467FEA2363014642028C
:100AE00006BF5FEA412390EA010F40F4800070479F
:100AF0004FF0000304E000BF10F0004348BF404245
:100B00005FEA000C08BF704743F0964301464FF080
:100B100000001CE050EA010208BF70474FF00003DC
:100B20000AE000BF50EA010208BF704711F000431D
:100B300002D5404261EB41015FEA010C02BF8446ED
:100B40000146002043F0B64308BFA3F18053A3F54C
:100B50000003BCFA8CF2083AA3EBC25310DB01FA93
:100B600002FC634400FA02FCC2F12002BCF1004F17
:100B700020FA02F243EB020008BF20F001007047A8
:100B800002F1200201FA02FCC2F1200250EA4C00FC
:100B900021FA02F243EB020008BF20EADC70704742
:100BA0004FEA4002B2F1FE4F0FD34FF09E03B3EB7A
:100BB00012620DD94FEA002343F0004310F0004FBA
:100BC00023FA02F018BF404270474FF00000704710
:100BD00012F1610F01D1420205D110F0004008BFAF
:100BE0006FF0004070474FF00000704738B50E4B73
:100BF000054618784FF47A73B3FBF0F30B4A10688C
:100C0000B0FBF3F000F000FB044658B90F2D09D8F3
:100C1000024629464FF0FF3000F0B6FA044B20465A
:100C20001D6038BD012038BD0000002018010020E3
:100C300004000020074A08B51368032043F010039E
:100C4000136000F08FFA0020FFF7D0FF03F0ECFBF9
:100C5000002008BD00200240034A044B11681B78A5
:100C60000B441360704700BF402B002000000020A1
:100C7000014B1868704700BF402B002038B5044670
:100C8000FFF7F6FF0546631C1EBF044B1B78E418F4
:100C9000FFF7EEFF401B8442FAD838BD0000002069
:100CA000F7B5002604460D460196FFF7E1FF2368DD
:100CB00007469A68D20508D50120A36A84F8246003
:100CC00043F02003A36203B0F0BD5A68D60503D4F5
:100CD000DB6A13F4700F3BD03A4B02201E6801F020
:100CE0008FFA2368384A1969B6FBF0F01142374A87
:100CF0004FD1DE6836490E424BD11969114259D1A4
:100D0000DA68344B1A4214BF2923142300FB03F67C
:100D1000019B9E4220D96B1C05D05DB1FFF7A8FF57
:100D2000C01B854206D3019B01330193F0E7681C89
:100D30000FD045B9A36A032043F00403A362002344
:100D400084F82430BFE7FFF793FFC01B8542F1D33F
:100D5000226813689907EAD56FF0120322681360BE
:100D6000A36A43F40073A362936803F46023B3F5AA
:100D7000602F25D1E3681BBBA36A23F48073A362B1
:100D8000A06A10F480501BD1A36A43F00103A36250
:100D900099E71969114203D1D9680E4A11420BD063
:100DA00019690D4A114209D1DB68134214BFFC23B3
:100DB0005423ABE72923A9E75423A7E7FC23A5E79E
:100DC000002080E71801002024499224922449122F
:100DD0002449920092244900499224000368D86C67
:100DE00070470000002373B5019390F82430012B65
:100DF00074D001234D6880F82430062D02684FEA34
:100E000085030C6825D82B441F25566B053B9D4058
:100E100026EA050504FA03F32B435363092C4FEA32
:100E200044038D682FD907262344D1681E3B9E407A
:100E300021EA060105FA03F30B43D360A4F1100382
:100E4000012B2BD90023002280F82420184602B061
:100E500070BD0C2D0BD82B441F25166B233B9D40DA
:100E600026EA050504FA03F32B431363D6E72B4464
:100E70001F25D66A413B9D4026EA050504FA03F387
:100E80002B43D362CAE70726116923449E4021EA17
:100E9000060105FA03F30B431361CFE7104B9A42A7
:100EA00016D193681B02CDD49368102C43F4000331
:100EB0009360C7D10B4B0C4A1B68B3FBF2F20A23B9
:100EC00053430193019B002BBCD0019B013BF8E7EE
:100ED000836A43F0200383620123B4E70223B5E76A
:100EE000002401401801002040420F00002373B588
:100EF0000193036804469A68D20702D5002002B025
:100F000070BD9A6842F001029A60124B124A1B6847
:100F1000B3FBF2F30193019BC3B9FFF7A9FE0646A9
:100F200023689D6815F00105E8D1FFF7A1FE801B3D
:100F30000228F5D9A36A84F8245043F01003A36271
:100F4000E36A012043F00103E362D8E7019B013B20
:100F5000E0E700BF1801002040420F0090F8243065
:100F600010B5012B044654D0012380F82430FFF73C
:100F7000BDFF002849D1A36A274A23F4407323F018
:100F8000010343F48073A3622368934204D123498D
:100F90004A6812F4702F2ED1A26A22F48012A26243
:100FA0005A68520541BFA26A22F4405242F480526C
:100FB000A262A26A12F480521CBFE26A22F0060208
:100FC000E262002284F824206FF002021A609A681C
:100FD00002F46022B2F5602F13D10F4A934205D17B
:100FE000A2F58062526812F4702F0AD19A6842F416
:100FF000A0029A6010BDA26A42F48012A2624A68FE
:10100000CFE79A6842F48012F3E7002384F8243093
:1010100010BD022010BD00BF002801400024014087
:1010200038B5036804469A68D20701D4002038BD59
:101030009A6822F001029A60FFF71AFE05462368BB
:101040009B68DB07F2D5FFF713FE401B0228F6D999
:10105000A36A012043F01003A362E36A43F0010393
:10106000E36238BD70B50446002871D0836A23B9A5
:10107000C36280F8243002F033FE2046FFF7D0FF31
:10108000A36A13F0100FA36A64D1002862D1E1694A
:1010900023F48853626823F0020343F002030A43F7
:1010A000A168A362E368B1F5807F42EA430238D0C9
:1010B000012914BF06464FF480766569012D07D1DA
:1010C000002B30D1A369013B46EA433545F4006665
:1010D0002368B1F5807F5D6825F4694545EA06051A
:1010E0005D609E681D4D05EA060545EA02059D60A6
:1010F00001D0012920D1216901390905DD6A25F4D2
:1011000070052943D9629968154B0B409A4215D155
:101110000023E362A36A23F0030343F00103A36205
:1011200070BD0E46C9E7A36A43F02003A362E36AD9
:1011300043F00103E362CBE70021DFE7A36A23F07A
:10114000120343F01003A362E36A43F00103E36276
:10115000012070BD43F01003A362F9E7FDF7E1FF42
:10116000FE0E1FFF074A0002D36800F4E06023F47C
:10117000E0631B041B0C43F0BF6343F400330343E1
:10118000D360704700ED00E0174B30B5DC68C4F366
:101190000224C4F10703251D042B28BF0423062DB8
:1011A0004FF0010598BF002405FA03F303F1FF3364
:1011B00088BF033C1940A14005FA04F4013C2240D9
:1011C000002842EA01024FEA0212AFBF00F160407C
:1011D000064B00F00F00D2B2A5BFD2B200F56140BD
:1011E0001A5480F8002330BD00ED00E014ED00E05B
:1011F0000123420900F01F0003FA00F0014B43F8FD
:101200002200704700E100E00138B0F1807F0AD28F
:10121000F021064B064A586082F82310002007226E
:1012200098601A6070470120704700BF10E000E02E
:1012300000ED00E02DE9F74F00221646654BDFF880
:10124000A4E1DFF8A4C14FF001080C6808FA06F821
:1012500008EA0404A0457FD14D68122D00F0AF804C
:1012600000F28880022D00F0A7807CD8002D00F0CD
:101270008E80012D00F09E804FF00F09FF2C93BF50
:10128000824606F18045083DD0F800B092BFB50017
:10129000D0F804B0AD0009FA05F82BEA080802FA04
:1012A00005F588BF00F1040A48EA0505CAF80050B0
:1012B000D1F804A01AF0805F4ED0474D464FAD697B
:1012C00026F0030845F00105BD61BD6908F18048BD
:1012D00005F00105019508F5803806F0030B019D26
:1012E0004FEA8B0BD8F8085009FA0BF925EA0909DF
:1012F0003A4DA84268D005F58065A84266D005F54C
:101300008065A84264D005F58065A8420CBF03251E
:10131000042505FA0BF545EA0905C8F808501D68CB
:101320001AF4803F14BF2543A5431D605D681AF47D
:10133000003F14BF2543A5435D609D681AF4801FDC
:1013400014BF2543A5439D60DD681AF4001F14BF38
:101350002C4325EA0404DC600136102E7FF473AFC1
:1013600003B0BDE8F08F032D22D0112D84D1CA68BF
:10137000043281E71A4FBD4209D012D8DFF86C90D1
:101380004D4504D009F580394D457FF475AF8A6825
:10139000C2B1012A0CBFC0F81080C0F81480082226
:1013A0006AE77545F3D06545F1D0DFF84490EBE787
:1013B000002261E7CA685FE7CA6808325CE7CA686A
:1013C0000C3259E7042257E70025A2E70125A0E7E0
:1013D00002259EE700040140001002400008014081
:1013E0000000211000003110000032100000111028
:1013F000000022108368194214BF012000207047AA
:101400000AB1016170470904FBE72DE9F041044688
:1014100086B0002860D090F8293403F0FF021BB991
:1014200080F8282403F00EFB254603236E4655F86A
:10143000100B84F8293401F06BFB0FCD0FC62B681D
:1014400004F10408336098E80E00206801F050FBB6
:101450000021206801F066FB002123462246012678
:10146000084604F1100582F82810918601310F29F1
:1014700082F8296082F82B009063D063106402F137
:101480002002F0D10022174683F828229A860132E2
:101490000F2A83F8297283F82B72C3F83872C3F8C5
:1014A0003C72C3F8407203F12003EDD16E460FCDBC
:1014B0000FC62B68336098E80E00206801F034FBFB
:1014C000012384F82470206884F8293401F004FE94
:1014D000002006B0BDE8F0810120FAE790F828343A
:1014E00010B5012B04460ED0012180F8281403F01A
:1014F000D0FB206801F0EEFD206801F000FB002029
:1015000084F8280410BD022010BD90F8282410B5DE
:10151000012A04460BD0012280F8282484F82410E4
:10152000006801F0D1FD002084F8280410BD0220DD
:1015300010BD38B5044648B2002801F07F05B5BF9C
:1015400004EB451104EB4111283101F50A71C00F7C
:101550000D704870CB7094F828340A61012B09D0C3
:101560000123206884F8283401F0FAFA002084F876
:10157000280438BD022038BD4BB2002B01F07F0299
:10158000B5BF00EB421100EB4111283101F50A71A2
:10159000DB0F10B50A704B7090F828340446012B0D
:1015A00009D0012380F82834006801F04BFC0020AA
:1015B00084F8280410BD022010BD70B5002601F08B
:1015C0007F014D01441984F8281205F50A71014480
:1015D000C4F83C22C4F84032C4F8446284F829625A
:1015E000006801F093FD304670BD01F00F0100EB83
:1015F0004111B1F84402704701F07F0170B54D010F
:10160000441923640026012384F8281005F12801D9
:101610000144E263666484F82930006801F076FDD5
:10162000304670BD2DE9F3470446006801F056FDD1
:10163000000400F19880206801F050FD41050FD5AD
:1016400022682046B2F8443023F480631B041B0C4C
:10165000A2F8443003F02DFA00212046FFF755FF91
:10166000206801F03BFD470408D52268B2F84430F9
:1016700023F480431B041B0CA2F84430206801F0C3
:101680002DFD860408D52268B2F8443023F40053B7
:101690001B041B0CA2F84430206801F01FFDC50498
:1016A0001CD522682046B2F8403023F004031B0406
:1016B0001B0CA2F84030B2F8403023F008031B04A2
:1016C0001B0CA2F8403003F011FA2268B2F8443043
:1016D00023F480531B041B0CA2F84430206801F053
:1016E000FDFC00051DD52068B0F840309BB243F0EA
:1016F0000803A0F84030B0F8443023F400631B0422
:101700001B0CA0F84430B0F840309BB243F0040307
:10171000A0F8403001F0E2FCC10402D4204603F0FE
:10172000D5F9206801F0DAFC82050BD52268204645
:10173000B2F8443023F400731B041B0CA2F84430AD
:1017400003F0B3F9206801F0C9FCC30508D522688D
:10175000B2F8443023F480731B041B0CA2F844300D
:1017600002B0BDE8F0870023C84FDFF82483DFF81C
:101770002493ADF80430ADF806302068B0F844305A
:101780009BB2ADF804301B047FF555AFBDF8045093
:1017900015F00F0540F0AB80BDF80410038811F080
:1017A00010019BB226D13B400380B0F8503094F832
:1017B00028209BB203EBC20300EB4300D0F80434B3
:1017C000E26BC3F3090363641344E363204603F04D
:1017D00065F994F82430002BCFD0226C002ACCD1AC
:1017E00094F82430216843F08003A1F84C3084F849
:1017F0002420C2E7ADF80630BDF806301A051FD523
:10180000B0F8503094F828229BB203EBC20300EBEF
:101810004303D3F80C34B4F82C22C3F30903C4F8FF
:10182000443204F22C4101F071FD226820461388F5
:1018300023F070031B051B0D138003F021F99CE7B7
:10184000BDF806301B0498D5038823F070031B05F0
:101850001B0D0380B0F8503094F828229BB203EBA4
:10186000C20300EB4303D3F80C34C3F30903C4F8F9
:10187000443263B1B4F82C22D4F83C1201F046FD96
:10188000D4F83C32D4F844221344C4F83C3200214A
:10189000204603F0FBF82268D4F83852B2F8501012
:1018A0003E2D89B201F1060102F5806017D9C5F31A
:1018B0004F13EE0604BF03F1FF339BB249EA8323C3
:1018C0009BB240F8113013889BB203EA080383F4FB
:1018D000405343F4004343F0800313804DE7C5F3C6
:1018E0004F03ED0744BF01339BB29B02E8E730F89A
:1018F00025309BB2ADF80630BDF8063019043FD54F
:1019000030F825304FEA451A23F070031B051B0DF4
:1019100020F8253004EB0A0191F83232002B74D103
:10192000B0F8503091F828229BB2063303EBC20383
:1019300000EB4303D3F80064C6F3090636B1B1F8EF
:101940002C223346D1F83C1201F0E0FC04EB0A01F2
:10195000D1F84432D1F83C223344C1F84432D1F8B2
:1019600040323244C1F83C2223B1D1F838028642D9
:1019700080F08680A2449AF82812204603F086F868
:10198000BDF806301A067FF5F8AE20686E0130F813
:101990002530A1199BB23B4020F8253091F8323018
:1019A0000235002B78D1B0F8503091F828209BB246
:1019B000023303EBC20300EB4303D3F8003404EB20
:1019C0004515C3F309036B601BB18A8DC96B01F028
:1019D0008BFB22682644B2F8503096F828109BB250
:1019E000023303EBC10302EB4303D3F80024F36B90
:1019F000C2F3090272641A44336CF2632046002B6E
:101A000040F0858003F04AF8B7E691F8283230F8C4
:101A10002320DB0012F4804FB0F8502092B221D086
:101A20000232134400EB4303D3F80064C6F3090603
:101A300036B13346B1F82E22D1F83C1201F066FCE3
:101A400004EB0A0393F82812226832F8213023F0BD
:101A5000F0031B051B0D43F4004343F0C00322F8C1
:101A6000213073E70632134400EB4303D3F80064DC
:101A7000C6F30906002EE3D03346B1F83022DBE787
:101A800091F828122046FFF798FD79E70F8FFFFFA6
:101A90008FBFFFFF0080FFFF91F8283030F8232030
:101AA000DB0012F0400FB0F8502092B220D002328A
:101AB000134400EB4303D3F8003404EB4515C3F3A0
:101AC00009036B601BB1CA8DC96B01F00DFBA31933
:101AD00093F82810226832F8213023F0F0031B0518
:101AE0001B0D43F4404343F0800322F8213070E79C
:101AF0000632134400EB4303D3F8003404EB4515DE
:101B0000C3F309036B60002BE1D00A8EDCE7FFF71B
:101B100073FD32E6012238B54BB2002B01F07F0590
:101B2000B5BF00EB451100EB4111283101F50A71F9
:101B3000DB0FEDB28A700D704B7090F828340446BC
:101B400093420ED080F82824006801F049FA25B9A4
:101B500004F22C41206801F0C5FA002084F8280422
:101B600038BD022038BD38B500244BB2002B01F03F
:101B70007F02B5BF00EB421100EB4111283101F5A6
:101B80000A71DB0F8C700A704B7090F82834054690
:101B9000012B09D0012380F82834006801F052FAA3
:101BA00085F82844204638BD022038BD11F0800F4A
:101BB0001BBF01F07F0100EB411000EB411028300A
:101BC00008BF00F50A701AB982728380002070473E
:101BD0000122C3801B0C82720381F7E703682DE9A1
:101BE000F341DB07054610D42B689F075ED42B68B2
:101BF000190700F195802B685A0700F1BF80EA6948
:101C0000002A40F02D81002014E0904C636803F01E
:101C10000C03042B07D0636803F00C03082B0CD1D2
:101C20006368DE0309D523689C03DDD56B68002B50
:101C3000DAD1012002B0BDE8F0816B68B3F5803FD6
:101C400010D1236843F480332360FFF711F8064670
:101C500023689803C8D4FFF70BF8801B6428F7D9D2
:101C60000320E7E79BB9236823F4803323602368CC
:101C700023F480232360FEF7FBFF064623689903C5
:101C8000B2D5FEF7F5FF801B6428F7D9E8E7B3F576
:101C9000A02F236803D143F480232360D1E723F4EA
:101CA00080332360236823F48023CDE7674C636887
:101CB00013F00C0F07D0636803F00C03082B10D14E
:101CC0006368DA030DD423689B0702D52B69012BC7
:101CD000AFD123686A6923F0F80343EAC2032360A3
:101CE00085E72A695A4B6AB101221A60FEF7C0FFE4
:101CF000064623689F07ECD4FEF7BAFF801B022834
:101D0000F7D9ADE71A60FEF7B3FF064623689807D8
:101D10007FF56DAFFEF7ACFF801B0228F6D99FE779
:101D2000AA694A4C4B4BDAB101221A60FEF7A0FFB8
:101D30000646636A9B070DD54FF4FA52464B1B6863
:101D4000B3FBF2F3019300BF019B5A1E0192002BDB
:101D5000F9D150E7FEF78CFF801B0228E9D97FE715
:101D60001A60FEF785FF0646636A9F077FF543AF5B
:101D7000FEF77EFF801B0228F6D971E7334CE3693A
:101D8000D80024D40127E36943F08053E361E36979
:101D900003F080530093009B304E3368D90518D56B
:101DA000EB68012B26D1236A43F001032362FEF77F
:101DB0005FFF41F288368046236A9B073FD5002F9C
:101DC0003FF41DAFE36923F08053E36117E7002779
:101DD000E2E7336843F480733360FEF749FF8046DF
:101DE0003368DA05DCD4FEF743FFA0EB0800642873
:101DF000F6D935E7ABB9236A41F2883823F00103FD
:101E00002362236A23F004032362FEF731FF0646B0
:101E1000236A9807D3D5FEF72BFF801B4045F7D9DF
:101E20001EE7052B236A03D143F004032362BAE7BC
:101E300023F001032362236A23F00403B6E7FEF7CD
:101E400017FFA0EB0800B042B6D909E70010024026
:101E5000000042428004424218010020007000400D
:101E6000224C636803F00C03082B3FF4E2AE00231E
:101E70001F4E022A33602BD1FEF7FAFE0746236875
:101E800099011FD42B6AB3F5803F05D16268A96818
:101E900022F400320A436260696A62680B4322F4EA
:101EA00074121343636001233360FEF7E1FE0546BD
:101EB00023689A013FF5A7AEFEF7DAFE401B022821
:101EC000F6D9CDE6FEF7D4FEC01B0228D7D9C7E667
:101ED000FEF7CEFE054623689B017FF594AEFEF724
:101EE000C7FE401B0228F6D9BAE600BF0010024028
:101EF0006000424230B5194B87B002AC03F11005C7
:101F0000224618685968083303C2AB421446F7D119
:101F100001238DF80430022311498DF805304B68F8
:101F200003F00C02082A17D1C3F3834206A8024427
:101F3000DB0312F8102C0CD54B680A48C3F340435E
:101F4000504306AA134413F8143CB0FBF3F007B057
:101F500030BD05485043FAE70248F8E768560008E4
:101F60000010024000127A0000093D00544A2DE999
:101F7000F0411368054603F007038B420E462AD34F
:101F800029688C0734D4CA0747D44D4A136803F034
:101F900007039E42C0F082802A684A4C12F0040F68
:101FA00040F08780130706D563682A6923F46053DD
:101FB00043EAC2036360FFF79DFF6368424AC3F3CD
:101FC0000313D35CD840414B18600020FEF70EFE8F
:101FD0000020BDE8F081136823F007030B43136072
:101FE000136803F007039942CAD00120BDE8F081CD
:101FF000344B11F0040F1EBF5A6842F4E0625A607D
:10200000080742BF5A6842F460525A605A68A8688A
:1020100022F0F00202435A60B5E76A68294C012AAF
:1020200023681CD113F4003FDFD0636841F2883885
:1020300023F0030313436360FEF71AFE6B68074641
:10204000012B14D1636803F00C03042B9DD0FEF721
:102050000FFEC01B4045F5D90320BDE8F081022AE0
:1020600002D113F0007FDFE713F0020FDCE7022B51
:102070000FD1636803F00C03082B86D0FEF7F8FD40
:10208000C01B4045F5D9E7E7FEF7F2FDC01B404510
:10209000E2D8636813F00C0FF6D176E7136823F0EB
:1020A000070333431360136803F007039E429CD178
:1020B00072E76368E96823F4E0630B43636071E7E8
:1020C00000200240001002408D5600081801002038
:1020D000044B054A5B68C3F30223D35C034A1068D0
:1020E000D8407047001002409D560008180100209B
:1020F000044B054A5B68C3F3C223D35C034A1068F0
:10210000D8407047001002409D560008180100207A
:1021100003682DE9F341D907054620D5354CE3691D
:10212000DA0032D40127E36943F08053E361E369C5
:1021300003F080530193019B2F4E3368DB0526D5B6
:10214000236A13F4407336D1236A6A6823F4407318
:10215000134323621FB1E36923F08053E3612868CE
:10216000830706D5234AA968536823F440430B43E9
:10217000536010F010001BD01E4AE968536800201D
:1021800023F480030B43536012E00027D4E7336845
:1021900043F480733360FEF76BFD80463368D805E7
:1021A000CED4FEF765FDA0EB08006428F6D9032025
:1021B00002B0BDE8F0816A6802F440729342C3D075
:1021C00001200E4A236A1060002023F44071106041
:1021D0002162D907B8D5FEF74BFD41F28838064693
:1021E000236A9A07B0D4FEF743FD801B4045F7D918
:1021F000DDE700BF00100240007000404004424292
:1022000070B50446354B86B002AD03F110062A4680
:1022100018685968083303C2B3421546F7D1012341
:102220008DF8043002239C428DF8053047D0102CE5
:1022300017D0012C4FD140F20231294A136A1940BC
:10224000B1F5817F44D003F44073B3F5007F2DD105
:1022500049F64040536A13F0020F08BF002006B051
:1022600070BD1F4B5968186810F08070F7D0C1F32B
:10227000834206A8024412F8100CCA0341BF5A68F0
:1022800006A9C2F34042521844BF12F8141C154A62
:102290005B684CBFB2FBF1F2134A5B0202FB00F039
:1022A000DDD403234000B0FBF3F0D8E7B3F5407F63
:1022B00011D113684FF2244013F4003FCDE7FFF72C
:1022C00017FF074B5B68C3F3813301335B00EAE719
:1022D0004FF40040C3E70020C1E700BF7856000874
:1022E0000010024000127A0000093D00036A70B538
:1022F00023F001030362036A446882690D6822F0D7
:1023000073022A438D6823F002032B430A4DA8422F
:102310000BD1CD6823F008032B438E694D6924F45B
:102320004074354323F004032C43446082614A68BF
:102330004263036270BD00BF002C0140036A70B5A8
:1023400023F480730362036A4468C2690D6822F053
:1023500073022A438D6823F4007343EA05230B4D6F
:10236000A8420DD1CD6823F4006343EA05238E69AA
:102370004D6924F44054354323F4806344EA051442
:102380004460C2614A68C263036270BD002C0140B0
:10239000036A30B523F480530362036A4468C26958
:1023A0000D6822F4E64242EA05228D6823F40053C8
:1023B00043EA0533064DA84202BF4D6924F4804428
:1023C00044EA85144460C2614A680264036230BD15
:1023D000002C014003680020DA6842F00102DA6054
:1023E0001A6842F001021A6070470368DA6822F046
:1023F0000102DA6041F21112196A114208D140F269
:102400004442196A114202BF1A6822F001021A609E
:1024100000207047704790F83C3070B5012B4FF0AA
:1024200002031CD0012280F83D30036880F83C2074
:102430009A6822F47F4222F077029A600A68402A62
:1024400079D019D8102A00F093800AD8002A00F019
:102450008980012380F83D30002380F83C30184605
:1024600070BD202A00F08A80302AF2D19A6822F0CA
:10247000700242F0370236E0702A36D01BD8502A5C
:1024800042D0602AE5D11C6A4D6824F01004CE6861
:102490001C6299691A6A21F4704122F0A00242EA92
:1024A000051241EA063199611A629A6822F07002B7
:1024B00042F0670217E0B2F5805F11D0B2F5005F1D
:1024C000C7D18A684D689C68C9682A4324F47F4450
:1024D00042EA012222439A609A6842F4804202E072
:1024E0009A6822F007029A60B3E78A684D689C6890
:1024F000C9682A4324F47F4442EA012222439A60B5
:102500009A6842F07702EEE74C68CE68196A1D6A55
:1025100021F00A0125F001051D629A69214322F08C
:10252000F00242EA06129A6119629A6822F0700279
:1025300042F05702D7E74C68CE68196A1D6A21F04D
:102540000A0125F001051D629A69214322F0F0027B
:1025500042EA06129A6119629A6822F0700242F009
:102560004702C0E79A6822F0700242F00702BAE719
:102570009A6822F0700242F01702B4E79A6822F0DB
:10258000700242F02702AEE770477047704770470D
:102590007047036810B51A69044691070ED5DA68CA
:1025A00092070BD56FF002021A6101229B69027734
:1025B0009B0777D0FFF7EAFF0023237723681A6988
:1025C000500710D5DA6851070DD56FF004021A6173
:1025D00002229B69227713F4407F204668D0FFF7E0
:1025E000D5FF0023237723681A6912070FD5DA680D
:1025F00010070CD56FF008021A610422DB692277FC
:10260000990720465AD0FFF7C1FF0023237723689C
:102610001A69D20610D5DA68D0060DD56FF010020F
:102620001A610822DB69227713F4407F20464BD0E1
:10263000FFF7ACFF0023237723681A69D10708D579
:10264000DA68D20705D56FF0010220461A61FFF75C
:102650009BFF23681A69100608D5DA68110605D5AC
:102660006FF0800220461A6100F075F923681A693C
:10267000520608D5DA68500605D56FF040022046AC
:102680001A61FFF785FF23681A69910622D5DA6877
:1026900092061FD56FF020022046BDE810401A6157
:1026A00000F058B9FFF771FF2046FFF770FF83E78E
:1026B000FFF76BFF2046FFF76AFF92E7FFF765FF22
:1026C0002046FFF764FFA0E7FFF75FFF2046FFF714
:1026D0005EFFAFE710BD00001A4A036890420AD0BF
:1026E000B0F1804F07D0A2F59432904203D002F5AA
:1026F0008062904215D14A6823F070031343114A57
:1027000090420AD0B0F1804F07D0A2F594329042A7
:1027100003D002F58062904203D1CA6823F440736B
:1027200013434A6923F08003134303608B68C36239
:102730000B688362034B984204BF0B690363012358
:1027400043617047002C014010B50446A0B190F8D9
:102750003D3003F0FF021BB980F83C2001F068FF18
:102760000223206884F83D30211DFFF7B5FF0123C7
:10277000002084F83D3010BD012010BD10B5044686
:10278000A0B190F83D3003F0FF021BB980F83C2067
:10279000FFF740FE0223206884F83D30211DFFF73B
:1027A0009BFF0123002084F83D3010BD012010BDA7
:1027B000036A70B523F010030362036A44688269F8
:1027C0000D6822F4E64242EA05228D6823F02003D8
:1027D00043EA05130B4DA8420DD1CD6823F08003C9
:1027E00043EA05138E694D6924F44064354323F0B0
:1027F000400344EA8504446082614A68826303625C
:1028000070BD00BF002C014038B590F83C30044644
:10281000012B4FF0020025D0012384F83D0084F8FD
:102820003C300C2A18D8DFE802F0071717171E17DC
:1028300017172F17171740002068FFF757FD236859
:1028400009699A6942F008029A619A6922F00402C1
:102850009A619A690A439A610123002084F83D3005
:1028600084F83C0038BD2068FFF7A2FF236809699F
:102870009A6942F400629A619A6922F480629A61CC
:102880009A6942EA0122E6E72068FFF757FD2368CC
:102890000969DA6942F00802DA61DA6922F00402B1
:1028A000DA61DA690A43DA61D6E72068FFF770FD7A
:1028B00023680969DA6942F40062DA61DA6922F4AC
:1028C0008062DA61DA6942EA0122ECE710B501249C
:1028D000036A8C4023EA04030362036A8A401A43B2
:1028E000026210BD10B5044601220068FFF7EEFF3A
:1028F0002368064A0020934202BF5A6C42F4004209
:102900005A641A6842F001021A6010BD002C01409E
:1029100090F83C3010B5012B4FF0020318D080F82E
:102920003D3003680C685A68496822F070025A60AA
:102930005A6822435A609A6822F080029A609A6824
:102940000A439A60012380F83D30002380F83C3030
:10295000184610BD704770472DE9F0470568C268FA
:102960002B69016923F4405313432B618368EA68A0
:102970000B43416922F4B05222F00C020B43134383
:10298000EB606B69826923F4407313436B61404BC6
:1029900081469D424FF0190446D1FFF7A9FB04FB85
:1029A00000F3D9F804604FF06408B600B3FBF6F307
:1029B000B3FBF8F31E01FFF79BFB6043D9F804302B
:1029C0009B00B0FBF3F7FFF793FB6043D9F80430AB
:1029D0009B00B0FBF3F3B3FBF8F308FB13731B018D
:1029E0003233B3FBF8F303F0F007FFF781FB6043EA
:1029F000D9F804209200B0FBF2FAFFF779FB6043AC
:102A0000D9F804309B00B0FBF3F3B3FBF8F308FBF9
:102A100013A31B013233B3FBF8F303F00F033B4363
:102A20003344AB60BDE8F087FFF752FB04FB00F3D3
:102A3000D9F804604FF06408B600B3FBF6F3B3FBBB
:102A4000F8F31E01FFF744FB6043D9F804309B0004
:102A5000B0FBF3F7FFF73CFB6043D9F804309B0071
:102A6000B0FBF3F3B3FBF8F308FB13731B01323332
:102A7000B3FBF8F303F0F007FFF72AFB6043D9F844
:102A800004209200B0FBF2FAFFF722FBB7E700BF89
:102A90000038014010B5044640B390F8393003F0D7
:102AA000FF021BB980F8382001F0FEFE24232268C3
:102AB00084F83930D368204623F40053D360FFF7FD
:102AC0004BFF236800201A6922F490421A615A6968
:102AD00022F02A025A61DA6842F40052DA602023B6
:102AE000E06384F8393084F83A3010BD012010BD1D
:102AF00084B001A880E80E0004B000207047B0F850
:102B000040309BB243F43F43A0F840300020704770
:102B1000B0F8403023F474535B045B0CA0F84030F1
:102B2000002070470020704784B010B503AC84E8E3
:102B30000E00BDE8104000220123A0F84030A0F8AC
:102B40004020A0F84420A0F85020B0F8403004B055
:102B50009BB243F43F43A0F840301046704700005A
:102B600070B5CB780A78032B0FD8DFE803F0026446
:102B7000505930F8223023F4EC4323F070031B0447
:102B80001B0C43F4007320F8223040F60F730C78CE
:102B900030F8242044F4004545F080051A402A43CB
:102BA00020F824208A7A0D78002A40F097804C780B
:102BB0008A88002C4AD0B0F850405208A4B204EBE6
:102BC000C50400EB44045200C4F800240C7830F82B
:102BD0002420520608D530F82420134043F4004343
:102BE00043F0C00320F824300A7830F8223023F470
:102BF000E04323F040031B041B0C83F0200343F449
:102C0000004343F0800320F82230002070BD30F8EC
:102C1000223023F4EC4323F070031B041B0CB2E7B7
:102C200030F8223023F4EC4323F070031B041B0C18
:102C300043F4C063A7E730F8223023F4EC4323F0D9
:102C400070031B041B0C43F480639CE7B0F8503006
:102C500052089BB2043303EBC503520000F58064B5
:102C600044F81320B0F850200D6992B20B78063268
:102C70003E2D02EBC30229D9C5F34F16EB0604BF64
:102C800006F1FF339EB26E4B43EA86239BB244F8B3
:102C900012300A7830F822305E040BD530F822303A
:102CA00023F0F0031B051B0D43F4404343F0800366
:102CB00020F822300A7830F8223023F4804323F0C1
:102CC00070031B041B0C83F4405398E7C5F34F03B8
:102CD000ED0744BF01339BB29B02D7E730F82520B4
:102CE00022F4F8721205120D42F4014242F0800201
:102CF00020F82520B0F850200C7892B202EBC402E4
:102D0000CC8800F580656408640045F81240B0F88E
:102D100050200C7892B2043202EBC4020C89640891
:102D2000640045F812404A780C78002A47D130F800
:102D30002420550408D530F82420134043F44043A0
:102D400043F0800320F824300A7830F822305C0603
:102D50000BD530F8223023F0F0031B051B0D43F494
:102D6000004343F0C00320F822300A7830F82230C4
:102D700023F0F0031B051B0D43F4004343F0C00395
:102D800020F8223048F280020C7830F8243023F406
:102D9000804323F070031B041B0C83F44053134344
:102DA00020F82430097830F8213023F4E04323F070
:102DB00040031B041B0C134320F8213025E730F897
:102DC0002420520408D530F82420134043F4404313
:102DD00043F0800320F824300A7830F822305B0674
:102DE0000BD530F8223023F0F0031B051B0D43F404
:102DF000004343F0C00320F822300A7830F8223034
:102E000023F0F0031B051B0D43F4404343F0800304
:102E100020F8223048F280020C7830F8243023F475
:102E2000E04323F040031B041B0C134320F8243021
:102E3000097830F8213023F4804323F07003B8E799
:102E40000080FFFF10B58C7A4A780B78CCBB02B3B8
:102E500030F8232052060BD530F8232022F0F00260
:102E60001205120D42F4004242F0C00220F8232065
:102E70000A7830F8223023F4E04323F040031B04A7
:102E80001B0C43F4004343F0800320F82230002061
:102E900010BD30F8232054040BD530F8232022F045
:102EA000F0021205120D42F4404242F0800220F876
:102EB00023200A7830F8223023F4804323F0700373
:102EC000DDE7002A48D130F8232052040BD530F832
:102ED000232022F0F0021205120D42F4404242F08B
:102EE000800220F823200A7830F822305C060BD5C7
:102EF00030F8223023F0F0031B051B0D43F4004390
:102F000043F0C00320F822300A7830F8223023F052
:102F1000F0031B051B0D43F4004343F0C00320F8EE
:102F2000223048F280020C7830F8243023F48043B9
:102F300023F070031B041B0C134320F82430097882
:102F400030F8213023F4E04323F040031B041B0C32
:102F5000134320F821309AE730F8232052040BD590
:102F600030F8232022F0F0021205120D42F4404204
:102F700042F0800220F823200A7830F822305B06E5
:102F80000BD530F8223023F0F0031B051B0D43F462
:102F9000004343F0C00320F822300A7830F8223092
:102FA00023F0F0031B051B0D43F4404343F0800363
:102FB00020F8223048F280020C7830F8243023F4D4
:102FC000E04323F040031B041B0C134320F8243080
:102FD000097830F8213023F4804323F07003B5E7FB
:102FE0000A788AB9038823F4804323F040031B0442
:102FF0001B0C83F4805383F0100343F4004343F02D
:1030000080030380002070474B7883B130F8223072
:1030100023F4E04323F040031B041B0C83F0100354
:1030200043F4004343F0800320F82230EAE730F80D
:10303000223023F4804323F070031B041B0C83F421
:103040008053EDE74B780A7813B330F822305B06F3
:103050000BD530F8223023F0F0031B051B0D43F491
:10306000004343F0C00320F822300A7830F82230C1
:1030700023F4E04323F040031B041B0C83F03003D4
:1030800043F4004343F0800320F8223000207047CF
:1030900030F822305B040BD530F8223023F0F003F7
:1030A0001B051B0D43F4404343F0800320F82230FE
:1030B0000A7830F8223023F4804323F070031B0495
:1030C0001B0C83F44053DBE711B98023A0F84C308C
:1030D000002070470020704700207047B0F844007F
:1030E00080B270470020704710B50024013300F50E
:1030F00080605B1000EB4202A34200D110BD31F8AA
:10310000020B22F824000134F6E7000070B50E46E9
:103110008A694978054601293369B07A66D19A42AD
:103120001C469BBF00231446D21AB36188BFB2610C
:10313000A3B210BBB28871692846FFF7D5FFB5F876
:10314000503032789BB2023303EBC20305EB4303EA
:10315000C3F80044327835F8223023F4E04323F0FA
:1031600040031B041B0C83F0300343F4004343F083
:10317000800325F82230002070BD327835F8221007
:10318000D20011F0400FB5F8501089B21AD00231B8
:103190000A4405EB4202C2F80044328971692846AC
:1031A000FFF7A2FF737832789BB935F8223023F00D
:1031B000F0031B051B0D43F4004343F0C00325F847
:1031C0002230C7E70A4405EB4202C2F80444F28801
:1031D000E4E7012BBED135F8223023F0F0031B05C4
:1031E0001B0D43F4404343F08003E8E79A4293BF4A
:1031F0000023D21AB261B36198BF1346327870BB14
:10320000B5F850103E2B89B201F1060101EBC20165
:1032100005F5806018D9C3F34F12DB0604BF02F135
:10322000FF339AB2384B43EA82239BB240F8113005
:10323000327835F8223023F4804323F070031B04E6
:103240001B0C83F4405390E7C3F34F02DC0744BFE9
:10325000013292B2920292B240F81120E8E7B9B975
:10326000B5F850103E2B89B201F1020101EBC20109
:1032700005F5806428D9C3F34F10DA0604BF00F1C6
:10328000FF3290B2204A42EA802292B244F81120E2
:10329000727831785ABBB5F850203E2B92B202F1C9
:1032A000060202EBC10205F5806015D9C3F34F1188
:1032B000DC0604BF01F1FF3399B2134B43EA8123CB
:1032C0009BB240F81230B3E7C3F34F02D80744BFB4
:1032D000013292B29202D8E7C3F34F01DB0744BF39
:1032E000013189B2890289B240F81210A0E7012A9F
:1032F0009ED1B5F8502092B2023202EBC10205EB2A
:103300004202C2F8003493E70080FFFF10B50024AA
:10331000013300F580605B1000EB4202A34200D154
:1033200010BD52F8240021F814000134F6E7D0F85B
:1033300018321BB10020C3F81402704702207047F6
:10334000D0F81C3210B5D0F818425BB194F80002E6
:10335000FF2807D09B6894F8012221469847FF2355
:1033600084F80032002010BD4323038000487047DA
:103370004000002043230380004870478400002061
:103380004323038000487047D40000200A230380B1
:1033900000487047C800002038B50546D0F81842EC
:1033A00001F06CFCD5F81832C4F80C024BB1D5F81A
:1033B0001C3204F50371DB68D4F80402984700203E
:1033C00038BD022038BD0000F8B50F78064617F06A
:1033D00060030C4623D0202B19D1CA884B78C2B188
:1033E0003906D0F818520BD5D0F81C1218468F6841
:1033F0002946B84729463046E28800F08AFB06E0B5
:1034000085F8003285F80122294600F097FB00205C
:10341000F8BDD0F81C0284681846A047F7E74B783F
:103420000A2BF4D101220149E7E700BFE0010020A7
:1034300010B50446812101F0BDFB0121204601F0B9
:10344000B9FB8221204601F0B5FBD4F8183253B104
:10345000D4F81C325B689847D4F8180201F018FCC5
:103460000023C4F81832002010BDF8B5037C0446D0
:103470007BBB4FF400730222812101F08BFB4FF4E0
:10348000007302220121204601F084FB082303225D
:103490008221204601F07EFB4FF4077001F0F4FB1F
:1034A0000646C4F8180220B30025D4F81C321B6865
:1034B0009847277CC6F81452C6F8185287B94FF4BB
:1034C0000073D6F804220121204601F0C9FB3846DA
:1034D000F8BD40230222812101F05CFB4023D0E7AC
:1034E0004023D6F804220121204601F0B9FB2846EA
:1034F000F8BD0120F8BD19B1C0F81C1200207047BA
:1035000002207047D0F818320020C3F80812C3F820
:1035100010227047D0F818320020C3F80412704708
:10352000D0F8182210B572B1D2F81442012364B950
:10353000C2F814328121B2F81032D2F8082201F018
:1035400081FB204610BD022010BD184610BDD0F8EA
:10355000182210B562B1047C44B94FF40073D2F85C
:103560000422012101F07CFB002010BD4023F6E77E
:10357000022010BD08B580B1D0F8143213B1002379
:10358000C0F8143209B1C0F810120123027080F89B
:10359000FC3101F0AFFA002008BD022008BD19B1CE
:1035A000C0F81412002070470220704708B501F0DF
:1035B000E3FA002008BD08B5D0F814320BB9022098
:1035C00008BD1B6898470028F9D108BD08B5D0F898
:1035D00014325B689847002008BD38B500F50275C5
:1035E0000446284600F065FA012394F80812C4F84E
:1035F000F431B4F80E32C4F8F83101F01F03012B96
:103600000ED007D3022B10D001F08001204601F02C
:10361000DFFA03E02946204600F0D6F8002038BD46
:103620002946204600F0CAF9F8E72946204600F06E
:10363000DDF9F3E738B50446154611BBD0F8F4318F
:10364000032B0FD1D0F80C31D0F8102193420BD9B5
:103650009B1A9A4228BF1A46C0F80C3192B22946EA
:1036600000F07BFA002038BDD0F814321B6923B17A
:1036700090F8FC21032A00D19847204600F075FA03
:10368000F0E7D0F814329B69002BEBD090F8FC21C6
:10369000032AE7D19847E5E770B5134604460E467E
:1036A00000293DD1D0F8F421022A0FD1C569026A60
:1036B000954214D9AA1AC261194692B200F036FA9C
:1036C00033461A461946204601F0CAFA94F80032E9
:1036D000012B02D1002384F80032002070BD8369E1
:1036E000B3FBF2F502FB153565B99A420AD8D0F85A
:1036F000F821934206D22A4600F018FAC4F8F8518D
:103700002B46DEE7D4F81432DB682BB194F8FC21A9
:10371000032A01D120469847204600F031FAD5E728
:10372000D0F814325B69002BD7D090F8FC21032A23
:10373000D3D19847D1E7002238B504464025114639
:10374000402301F027FA2B46C4F8105100228021B3
:10375000204601F01FFA012384F8FC31D4F8183216
:1037600025622BB1D4F8143221795B682046984742
:10377000002038BD01740020704790F8FC3180F8BB
:10378000FD31042380F8FC310020704790F8FD31B2
:1037900080F8FC310020704708B590F8FC21032A1E
:1037A00004D1D0F81432DB6903B19847002008BD7A
:1037B00010B50446802101F00BFA2046BDE8104008
:1037C000002101F005BA000037B54B7804460D46DC
:1037D000092B79D8DFE813F0C900E5007800D9009B
:1037E00078006D000A007800B9008D004B881A0A35
:1037F000013A062A68D8DFE802F0041C2967674905
:103800005200D0F810321B680DF10601207C984759
:10381000BDF80620002A67D0EB88002B64D09A42BE
:1038200028BF1A460146ADF80620204600F071F97F
:103830005AE0027CD0F8143232B99B6A0DF10600CE
:10384000984702234370E3E7DB6AF7E7DBB2052B17
:103850003AD8DFE803F003070B0F1317D0F8103244
:103860005B68D1E7D0F810329B68CDE7D0F8103212
:10387000DB68C9E7D0F810321B69C5E7D0F8103211
:103880005B69C1E7D0F810329B69BDE7037CDBB907
:10389000D0F814320DF106005B6B9847B8E7037C53
:1038A00093B9D0F814320DF106001B6B984707232B
:1038B000C8E78B8843B9CB8833B990F8FC318D7851
:1038C000032B05F07F0503D12046FFF771FF0BE0C6
:1038D00080F8FE51294601F0A7F9204600F045F98D
:1038E0002DB1022384F8FC31002003B030BD012348
:1038F000F8E78978304D01292970E5D890F8FC3136
:10390000022B0CD0032BDFD1B1B90223416080F828
:10391000FC31FFF75BFE204600F027F9E4E70029C1
:10392000F9D001210323416080F8FC312046FFF7E4
:1039300042FE0228EFD1C7E741680129EBD0C9B2A6
:10394000FFF744FE29786160F0E7CA88012ABBD1FD
:1039500090F8FC31022B03D0032BB5D1011D64E795
:103960000146002341F8083F5FE790F8FC31023B35
:10397000012BA9D80123C360D0F804320BB1032373
:10398000C360022204F10C014FE74B88012BABD13D
:10399000C4F80432D4F8143229469B68204698476C
:1039A000B9E790F8FC31023B012B8DD84B88012BF5
:1039B0009AD10023ECE700BFE101002038B590F870
:1039C000FC310446032B0D460DD10B79012B0AD88F
:1039D000D0F814329B689847EB8813B9204600F062
:1039E000C4F8002038BDFFF7E3FEFAE770B50A78A7
:1039F0008E8802F06002202A04460D46F3B205D1FB
:103A0000D0F814329B689847002070BD4A78012A8C
:103A10001CD02AD3032AF7D190F8FC21022A40D0E7
:103A2000032A02D0FFF7C4FEEEE74A8822B95E06F9
:103A300002D0194601F0CCF8D4F8143229469B681C
:103A400020469847204600F090F8DDE790F8FC21EA
:103A5000022A26D0032AE5D14A88002AD4D1590661
:103A6000F0D0194601F0C2F8E6E790F8FC21022AEE
:103A700017D0032AD6D103F07F0516F0800F00EB94
:103A80000515194614BF143505F5827501F0BCF80B
:103A900068B101232B6002222946204600F039F844
:103AA000B2E75A06B0D0194601F092F8ACE72860A8
:103AB000F1E70B7803704B784370CA788B7803EB8F
:103AC000022343804A790B7903EB02238380CA796E
:103AD0008B7903EB0223C380704730B588B105466C
:103AE0002B1A15F8014BDBB2002CF9D15B00023325
:103AF00013800B7003234B700223013810F8015F11
:103B000005B930BD5A1CCD54D2B20233DBB28C544D
:103B1000F4E71346022210B5C0F8F42183610A4687
:103B2000C361002101F08EF8002010BD08B51346D6
:103B30000A46002101F086F8002008BD1346032242
:103B400010B5C0F8F421C0F808310A46C0F80C31AD
:103B5000002101F085F8002010BD08B513460A4683
:103B6000002101F07DF8002008BD08B50423C0F84D
:103B7000F43100231A46194601F064F8002008BD0C
:103B800008B50523C0F8F43100231A46194601F0A0
:103B900067F8002008BD00F07BB800000148FDF781
:103BA000DDB900BF442B002001460148FDF778B87D
:103BB000442B00200148FDF711B900BF442B002021
:103BC00038B50D46044670B9224640210B48FDF732
:103BD00017FC002220210948FDF712FC2846BDE809
:103BE000384000F02DB80128EED00228F6D100228E
:103BF00040210248FDF704FC0122EBE700080140E8
:103C000000F034B820B9CAB202210448FDF7F8BB6D
:103C1000012802D1CAB20146F7E77047000C014003
:103C200008B500F0D5FD04210348FEF75BFE002235
:103C3000024B9A6308BD00BFB42B00200004004073
:103C4000014B9863704700BF0004004008B500F0C6
:103C50006FFD00210348FEF745FE4FF47A72024BD8
:103C60005A6308BD742B002000080040014B5863C4
:103C7000704700BF0008004000F0FABD00F050BEE1
:103C800000F0CABE08B500F0A1FEC0B208BD000039
:103C90001148124B30B50024036001254FF4602316
:103CA00085B00194029403948460C4604461C3614C
:103CB00044600561FDF7D6F908B100F0B3FB01A936
:103CC0000548019402950394FDF78CF808B100F0C3
:103CD000A9FB05B030BD00BF442B002000240140EB
:103CE00010B5044686B01022002102A801F079F830
:103CF0002268104B9A421BD103F56C439A6902A9C2
:103D000042F400729A619A690B4802F400720092C0
:103D1000009A9A6942F004029A619B6903F00403D5
:103D20000193019B0123029303230393FDF782FA7E
:103D300006B010BD002401400008014010222DE90A
:103D4000F04389B00DEB0200002101F04AF8394B35
:103D5000DFF8E8909A69DFF8E88042F010029A6193
:103D60009A69354D02F010020092009A9A6948460D
:103D700042F020029A619A694FF4005102F0200249
:103D80000192019A9A69002442F004029A619A69A8
:103D9000012702F004020292029A9A69022642F076
:103DA00008029A619B69002203F008030393039BB6
:103DB000FDF726FB404600224FF4B071FDF720FBD3
:103DC0000022284642F21001FDF71AFB4FF400537F
:103DD00004A948460493059706940796FDF72AFA26
:103DE0004FF4B07304A940460493059706940796D0
:103DF000FDF720FA4FF4815304A928460493059453
:103E00000694FDF717FA42F2100304A9284604931A
:103E1000059706940796FDF70DFA032304A9284693
:103E20000493059706940796FDF704FA09B0BDE8D8
:103E3000F08300BF00100240000C01400010014060
:103E400000080140282270B594B00DEB020000215B
:103E500000F0C7FF142210260DEB0200002100F035
:103E6000C0FF3246002101A800F0BBFF4FF48033B1
:103E7000012202250B9312934FF4E0130AA80A9231
:103E80000E9213931195FDF7A9FE0F2300240593BD
:103E90004FF48063294605A8089306950794099472
:103EA000FEF764F801A801960494FEF731F914B006
:103EB00070BD00000A232DE9F04F89B00193522311
:103EC0008DF8083044238DF80930592301248DF8EA
:103ED0000A30DFF8EC92FCF7ADFEFFF7B3FFFFF717
:103EE0002DFF00F073FBFFF756FEFFF7C5FEFFF74F
:103EF000ADFEFFF795FE6420FCF7C0FEFFF7BEFEA7
:103F0000AC4889F80040FEF765FA6420FCF7B6FE7D
:103F100000224FF40051A848FDF772FA22464FF4F0
:103F20008071A648FDF76CFA00210846FFF76AFE8B
:103F300020460021FFF766FE002100240846FFF717
:103F40003FFE40F2DC50FFF75BFE4FF003082546D2
:103F500027462646DFF86CA2DFF86CB2B8F1010FF5
:103F600000F03481B8F1030F40F0098101A902A8E3
:103F7000FFF788FE002800F002819DF80830522BE0
:103F800017D19DF80930442B13D19DF80A30592BD5
:103F90000FD100210846FFF713FE40F2DC50FFF777
:103FA0002FFE00210846FFF72DFE00210120FFF71C
:103FB00029FE9DF808304D2B2CD19DF809304F2B50
:103FC00028D19DF80A30542B24D19DF80B30612B59
:103FD00000F0D980622B00F0D880632B00F0D880ED
:103FE000642B00F0D880652B08BF4FF47A649DF8ED
:103FF0000C30612B03D121460120FFF7E1FD9DF834
:104000000C30622B03D121460220FFF7D9FD4FF07F
:10401000010800279DF80830442B1CD19DF8093079
:10402000492B18D19DF80A30522B14D19DF80B3032
:10403000612B00F0B380622B00F0B380632B00F0A3
:10404000B380642B00F0B380652B08BF4FF4FA6592
:104050002846FFF7D5FD9DF80830532B1ED19DF85B
:1040600009304E2B1AD19DF80A30522B16D199F8EF
:10407000003003F0FD03012B02D14E48FEF7AAF9F0
:104080006420FCF7FBFD5146DBF8002005A800F09A
:10409000B1FEC6B2314605A8FFF7F2FD9DF8083023
:1040A0004C2B1CD19DF80930552B18D19DF80A30A6
:1040B000582B14D1FFF772FD1420FCF7DFFD05200B
:1040C000FFF772FD38B9FFF775FD5146024605A8A6
:1040D00000F090FEC6B2314605A8FFF7D1FD9DF86D
:1040E00008304C2B37D19DF80930452B47D19DF82E
:1040F0000A30442B43D19DF80B30612B07D19DF83A
:104100000C30302B03D100210846FFF77BFD9DF8D2
:104110000B30612B07D19DF80C30312B03D10121DD
:104120000020FFF76FFD9DF80B30622B07D19DF843
:104130000C30302B03D100210120FFF763FD9DF8E7
:104140000B30622B07D19DF80C30312B03D10121AC
:104150000846FFF757FD9DF80830422B0FD19DF818
:104160000930522B0BD19DF80A304B2B07D100217F
:104170000846FFF725FD40F2DC50FFF741FD032024
:10418000FCF77CFDEAE6002431E74FF47A742EE771
:104190004FF4FA642BE740F6B83428E74FF47A7509
:1041A00056E740F2E24553E740F2DC5550E740F273
:1041B000D6654DE7F42B00200010014000080140B7
:1041C0001701002088560008E801002001A902A874
:1041D0000137FFF757FD002800F000819DF80830F7
:1041E000522B17D19DF80930442B13D19DF80A307A
:1041F000592B0FD100210846FFF7E2FC40F2DC50BA
:10420000FFF7FEFC00210846FFF7FCFC00214046BA
:10421000FFF7F8FC9DF808304D2B2AD19DF80930A6
:104220004F2B26D19DF80A30542B22D19DF80B300C
:10423000612B00F0DE80622B00F0DD80632B00F04C
:10424000DD80642B00F0DD80652B08BF4FF47A64BD
:104250009DF80C30612B03D121460120FFF7B0FC03
:104260009DF80C30622B03D121460220FFF7A8FCF9
:1042700000279DF80830442B1CD19DF80930492BAC
:1042800018D19DF80A30522B14D19DF80B30612BB8
:1042900000F0BA80622B00F0BA80632B00F0BA8085
:1042A000642B00F0BA80652B08BF4FF4FA652846EE
:1042B000FFF7A6FC9DF80830532B1ED19DF809305E
:1042C0004E2B1AD19DF80A30522B16D199F8003096
:1042D00003F0FD03012B02D15148FEF77BF8642067
:1042E000FCF7CCFC5146DBF8002005A800F082FD6D
:1042F000C6B2314605A8FFF7C3FC9DF808304C2B29
:104300001CD19DF80930552B18D19DF80A30582B37
:1043100014D1FFF743FC1420FCF7B0FC0520FFF795
:1043200043FC38B9FFF746FC5146024605A800F0A9
:1043300061FDC6B2314605A8FFF7A2FC9DF8083022
:104340004C2B37D19DF80930452B47D19DF80A30C9
:10435000442B43D19DF80B30612B07D19DF80C30D5
:10436000302B03D100210846FFF74CFC9DF80B30A1
:10437000612B07D19DF80C30312B03D10121002096
:10438000FFF740FC9DF80B30622B07D19DF80C30F5
:10439000302B03D100210120FFF734FC9DF80B30B6
:1043A000622B07D19DF80C30312B03D10121084637
:1043B000FFF728FC9DF80830422B0FD19DF80930FB
:1043C000522B0BD19DF80A304B2B07D10021084608
:1043D000FFF7F6FB40F2DC50FFF712FC462F7FF6AA
:1043E000CEAE00210846FFF7EBFB4FF00308002795
:1043F000C5E600242CE74FF47A7429E74FF4FA64F9
:1044000026E740F6B83423E74FF47A754FE740F2D9
:10441000E2454CE740F2DC5549E740F2D66546E715
:10442000F42B0020704700000E4B82B09A6942F0D6
:1044300001029A619A6902F001020092009ADA6917
:1044400042F08052DA61DB69074A03F0805301933E
:10445000019B536823F0E06343F00073536002B0A4
:10446000704700BF00100240000001407047FEE7A7
:10447000FEE7FEE7FEE7704770477047FCF7ECBBCE
:104480000148FDF7CFB800BF6836002000000000EB
:1044900070B5354C2378042B0BD8DFE803F02D03DF
:1044A0000F5B1600012210213048FCF7A9FF022300
:1044B00023702F48BDE87040FEF76BB80022102132
:1044C0002A48FCF79DFF0423F2E720212748FCF748
:1044D00091FF284D064660B92B6801332B602B688D
:1044E000B3F5166FE5DD2248FDF77FFF2E6003234D
:1044F000DEE700232B60DBE720211C48FCF77AFF76
:1045000001281C4D0CD12B6801332B602B68B3F5AF
:10451000166FCEDD1648FDF768FF00232B60E6E737
:104520001348FDF762FF2868FCF7E6FAFBF774FF13
:104530000BA3D3E90023FBF7C3FFFCF7D3F90E4B22
:1045400018601868FCF72CFB0C4B186000232B60DC
:104550000123ADE70648FDF748FFAAE7AFF3008067
:10456000C1CAA145B6F3C53F17010020000C0140A8
:10457000F42B0020EC010020E4010020E8010020E1
:104580000F4B1A6842F001021A6059680D4A0A403E
:104590005A601A6822F0847222F480321A601A6813
:1045A00022F480221A605A6822F4FE025A604FF404
:1045B0001F029A604FF00062034B9A60704700BF81
:1045C000001002400000FFF800ED00E07FB510226F
:1045D000002102A800F005FCF0224FF080411348B2
:1045E000002380E806000222009301938360C260EA
:1045F00003618361FEF7A8F808B1FFF713FF4FF4DA
:10460000805302A909480293FDF705FF08B1FFF79F
:1046100009FF00236946054800930193FEF778F9E6
:1046200008B1FFF7FFFE07B05DF804FBF42B002094
:104630001FB503681A4A93420CD11A4BDA6942F04B
:104640000402DA61DB6903F004030193019B05B006
:104650005DF804FB144A93420AD1124BDA6942F026
:104660000202DA61DB6903F002030293029BEEE7C8
:10467000B3F1804FEBD103F50433DA691C2042F02B
:104680000102DA610022DB69114603F001030393A2
:10469000039BFCF779FD1C20FCF7AAFDD7E700BFC0
:1046A00000080040001002400004004010B504461D
:1046B00086B01022002102A800F093FB2268184B5C
:1046C0009A4213D103F502339A6902A942F0080213
:1046D0009A619B69134803F008030093009B4023F1
:1046E0000293022303930593FCF7A4FD22680E4B6B
:1046F0009A4213D103F503339A6902A942F00402E6
:104700009A619B69094803F004030193019B80238C
:104710000293022303930593FCF78CFD06B010BDB2
:1047200000080040000C0140000400400008014067
:1047300010B58EB01022002103A800F052FB002417
:104740001C2221460DEB02000194029400F049FB6B
:1047500047231D481D4A846080E80C0044F61F630F
:104760000461C3608461FDF7EFFF08B1FFF75AFEF3
:104770004FF4805303A914480393FDF74CFE08B18E
:10478000FFF750FE1048FDF7F9FF08B1FFF74AFEAA
:10479000002401A90C4801940294FEF7B9F808B16D
:1047A000FFF740FE6023002207A9074807930894FB
:1047B00009940B94FEF728F808B1FFF733FE02487E
:1047C000FFF774FF0EB010BD742B002000080040EE
:1047D00010B58EB01022002103A800F002FB0024C7
:1047E0001C2221460DEB02000194029400F0F9FA1C
:1047F00047231D481D4A846080E80C0040F69F73E3
:104800000461C3608461FDF79FFF08B1FFF70AFEF2
:104810004FF4805303A914480393FDF7FCFD08B13E
:10482000FFF700FE1048FDF7A9FF08B1FFF7FAFDFA
:10483000002401A90C4801940294FEF769F808B11C
:10484000FFF7F0FD6023042207A9074807930894A7
:1048500009940B94FDF7D8FF08B1FFF7E3FD024878
:10486000FFF724FF0EB010BDB42B00200004004061
:1048700008B54FF4165E0A480A4B0C2280E808403F
:10488000002342618360C36003618361C361FEF7FB
:1048900001F918B1BDE80840FFF7C4BD08BD00BF6D
:1048A000342C00200038014010B5044686B0102298
:1048B000002102A800F095FA2268174B9A4228D1ED
:1048C00003F558439A6902A942F480429A619A69B1
:1048D000124802F480420092009A9A6942F004025F
:1048E0009A619B6903F004030193019B4FF40073E9
:1048F00002930223039303230593FCF79BFC4FF4DD
:1049000080630293002302A9044803930493FCF7F5
:1049100091FC06B010BD00BF003801400008014006
:1049200010B5094C002209492046FEF723FE08492C
:104930002046FEF734FE20460649FEF7DCFD204601
:10494000BDE81040FEF732BE742C00202C01002080
:10495000080000201C010020002070470020704744
:1049600001220E4B10B51A721A680C6898180132A1
:10497000092AC8BF002242F219711A604FF47A72F4
:1049800044541968064802FB01310931FEF7C2FDA3
:104990000348FEF7DCFD002010BD00BFF001002041
:1049A000742C002010B5064C002206492046FEF764
:1049B000A9FD05492046FEF7ADFD002010BD00BF52
:1049C000742C002080320020982E002070B5114CED
:1049D0000646237A0D46DBB142F21973616862180C
:1049E000D25C4FF47A7303FB01412A60093100F075
:1049F000EDF900222B68F254636821680133092B1A
:104A0000C8BF13468B42636000D12272012070BD83
:104A1000184670BDF001002010B5094C0A46D4F8C4
:104A20001832D3F8143243B901462046FEF76AFD26
:104A30002046BDE81040FEF773BD012010BD00BF49
:104A4000742C002007B50D4B02689A4212D103F571
:104A5000DA33DA69142042F40002DA610022DB69F9
:104A6000114603F400030193019BFCF78DFB142016
:104A7000FCF7BEFB03B05DF804FB00BF005C004028
:104A800000F22C41D0F85C04FEF7A7BD00EB411307
:104A9000D3F83C22D0F85C04FEF7CCBD00EB411308
:104AA000DA6BD0F85C04FEF7F7BDD0F85C04FEF7D3
:104AB00073BE10B504460121D0F85C04FEF75AFE1F
:104AC000D4F85C04BDE81040FEF735BE10B50446CE
:104AD000D0F85C04FEF751FEA36923B1024A1369C2
:104AE00043F00603136110BD00ED00E0D0F85C0454
:104AF000FEF74CBE10B5022308224FF0030E044609
:104B00001B491C4880E80E400023C0F85C44C4F8F0
:104B100020028361C3610362FCF777FC08B1FFF7F1
:104B200081FC002218231146D4F82002FDF73EF83C
:104B3000582300228021D4F82002FDF737F8C02343
:104B400000228121D4F82002FDF730F84FF4887359
:104B500000220121D4F82002FDF728F84FF48073D9
:104B600000228221D4F82002FDF720F8002010BD99
:104B7000005C00406836002008B5D0F82002FCF741
:104B8000ADFC03289ABF024B185C022008BD00BF91
:104B9000A556000810B51C46D0F820021346224640
:104BA000FCF7C7FC03289ABF014B185C022010BD1C
:104BB000A556000808B5D0F82002FCF7DDFC032854
:104BC0009ABF024B185C022008BD00BFA556000822
:104BD00008B5D0F82002FCF79DFF03289ABF024BCE
:104BE000185C022008BD00BFA556000808B5D0F823
:104BF0002002FCF7B8FF03289ABF024B185C022082
:104C000008BD00BFA55600080A06D0F8203245BFEF
:104C100001F07F0103EB411303EB411393F82A00EA
:104C200058BF93F82A02704708B5D0F82002FCF765
:104C30006CFC03289ABF024B185C022008BD00BF21
:104C4000A556000808B5D0F82002FCF7D5FC0328CB
:104C50009ABF024B185C022008BD00BFA556000891
:104C600008B5D0F82002FCF7A8FC03289ABF024B35
:104C7000185C022008BD00BFA556000808B5D0F892
:104C80002002FCF7B2FC08BD004870471429002040
:104C900070477047122301480B807047480100207D
:104CA000042301480B8070475C01002010B5044CC0
:104CB0000A4604482146FEF710FF204610BD00BFFB
:104CC000C83A0020C256000810B5044C0A460448F1
:104CD0002146FEF702FF204610BD00BFC83A002063
:104CE000D556000810B5044C0A4604482146FEF784
:104CF000F4FE204610BD00BFC83A0020EB56000865
:104D000010B5044C0A4604482146FEF7E6FE20464C
:104D100010BD00BFC83A0020A956000810B5044CC9
:104D20000A4604482146FEF7D8FE204610BD00BFC3
:104D3000C83A0020B4560008002103E00B4B5B5832
:104D4000435004310A480B4B42189A42F6D30A4AA0
:104D500002E0002342F8043B084B9A42F9D3FFF7E4
:104D60000FFC00F00FF8FFF7A5F870473457000864
:104D700000000020C4010020C4010020CC3C002021
:104D8000FEE7000070B500250C4E0D4CA41BA410CE
:104D9000A54209D100F05CFC00250A4E0A4CA41B78
:104DA000A410A54205D170BD56F8253098470135AD
:104DB000EEE756F8253098470135F2E72C57000802
:104DC0002C5700082C5700083057000810B5431E18
:104DD0000A44914200D110BD11F8014B03F8014F74
:104DE000F7E703460244934200D1704703F8011BE2
:104DF000F9E700000EB44FF4027100B59CB0ADF8B5
:104E000014106FF00041049107914FF6FF711DAB34
:104E100002900690084853F8042BADF8161000686D
:104E200002A9019300F066F80022029B1A701CB0E0
:104E30005DF804EB03B07047600100202DE9F047F6
:104E40008E6882469E420C469146984635D88A899D
:104E500012F4906F31D00223256809696F1A6569D1
:104E600005EB450595FBF3F508F101033B449D4235
:104E700038BF1D46530531D5294600F03BFB064699
:104E800050B90C23CAF80030A3894FF0FF3043F02B
:104E90004003A381BDE8F0873A462169FFF796FFFA
:104EA000A38923F4906343F08003A38126613E44E9
:104EB000266046466561ED1BA560464528BF46460F
:104EC00049463246206800F0AFFAA36800209B1BD9
:104ED000A36023681E442660BDE8F0872A4600F0E0
:104EE00067FB06460028E1D12169504600F0B6FA7A
:104EF000C7E700002DE9F04F9DB003938B898046F2
:104F00001C060D4616460FD50B696BB9402100F003
:104F1000F1FA2860286128B90C23C8F800304FF056
:104F2000FF30C4E040236B610023099320238DF8F8
:104F3000293030234FF0010B8DF82A3037463C469C
:104F400014F8013B002B3CD1B7EB060A0BD05346BB
:104F5000324629464046FFF771FF013000F0A2803B
:104F6000099B534409933B78002B00F09B8000235E
:104F70004FF0FF3204930793059206938DF8533058
:104F80001A9305222178504800F040FA671C049BD0
:104F9000D8B9D90644BF20228DF853201A0744BF40
:104FA0002B228DF8532022782A2A16D000210A209D
:104FB000079A27463B780134303B092B50D9C9B1B9
:104FC00011E0252BC0D02746B9E73F4A3C46801A5E
:104FD0000BFA00F018430490D3E7039A111D1268EE
:104FE0000391002A01DB079204E0524243F00203DE
:104FF000079204933B782E2B0DD17B78791C2A2BBA
:1050000032D1039B02371A1D1B680392002BB8BFD5
:105010004FF0FF3305932D4C03223978204600F0E2
:10502000F5F938B14023001B03FA00F0049B013767
:10503000034304933978062225487E1C8DF82810F6
:1050400000F0E4F9002835D0224BFBB9039B07336D
:1050500023F0070308330393099B4B4409936DE73F
:1050600000FB02320121A4E700230A24184605931D
:105070000F463A780131303A092A03D9002BCAD0B9
:105080000590C8E704FB00200123F1E703AB009380
:105090002A46114B04A94046AFF30080B0F1FF3F10
:1050A0008146D9D1AB895B063FF539AF09981DB070
:1050B000BDE8F08F03AB00932A46074B04A9404696
:1050C00000F084F8EAE700BFF8560008FE56000832
:1050D00002570008000000003D4E00082DE9F0478F
:1050E00091461F468A680B6906469342B8BF13462D
:1050F000C9F8003091F843200C46DDF8208012B149
:105100000133C9F800302368990642BFD9F800304E
:105110000233C9F80030256815F0060507D104F1FF
:10512000190AE368D9F800209B1A9D422ADB94F8FB
:1051300043302268003318BF012392062FD404F1B4
:10514000430239463046C047013022D02368E56823
:1051500003F00603042B18BF0025D9F800204FF0F8
:10516000000908BFAD1AA368226908BF25EAE575E2
:105170009342C4BF9B1AED181A344D451BD1002031
:10518000BDE8F0870123524639463046C04701301A
:1051900003D14FF0FF30BDE8F0870135C1E7302083
:1051A000E11881F843005A1C94F845102244023358
:1051B00082F84310C3E70123224639463046C047F0
:1051C0000130E6D009F10109D7E700002DE9F043ED
:1051D00017460A7E85B06E2A984606460C460C9BFA
:1051E00001F1430E00F0BC801AD8632A2ED00AD8F1
:1051F000002A00F0C880582A00F08A8004F1420595
:1052000084F842202AE0642A01D0692AF6D1216874
:105210001A6811F0800F23D0111D1960136827E060
:10522000732A00F0B48008D86F2A2AD0702AE5D1FA
:105230000A6842F020020A6003E0752A21D0782A29
:10524000DCD178226F4984F8452064E01A6801F1C6
:105250004205111D1960136884F842300123A3E050
:1052600011F0400F02F104011960D7D0B2F90030FB
:10527000002B03DA2D225B4284F8432062490A2284
:1052800017E02068196810F0800F03D0081D18601F
:105290000B6806E010F0400F01F104001860F7D031
:1052A0000B886F2A14BF0A2208225749002084F86D
:1052B00043006568002DA560C0F29C80206820F046
:1052C00004002060002B3FD1002D40F095807546F2
:1052D000082A0BD12368DA0708D5236962689A4245
:1052E000DEBF302305F8013C05F1FF35AEEB0503C9
:1052F0002361CDF800803B4603AA21463046FFF7E4
:10530000EDFE013055D14FF0FF3005B0BDE8F08320
:1053100081F845203C492268186812F0800F00F19E
:1053200004051D6001D0036802E05506FBD5038823
:10533000D00744BF42F0200222601BB9226822F04D
:10534000200222601022B1E77546B3FBF2F002FBA7
:105350001033CB5C05F8013D03460028F5D1B7E7D3
:1053600008681A6810F0800F496904D0101D186091
:105370001368196007E010F0400F02F10400186094
:105380001368F6D01980002375462361B1E71A68C7
:10539000111D1960156800216268284600F036F872
:1053A00008B1401B606063682361002384F84330C8
:1053B0009FE723692A4639463046C0470130A2D0CC
:1053C00023689B0707D5002504F11909E368039AB0
:1053D0009B1A9D4205DBE068039B9842B8BF1846C4
:1053E00093E701234A4639463046C04701308AD008
:1053F0000135EBE7002BA7D10B7804F1420584F8C7
:10540000423065E71A5700080957000810B5C9B2BD
:1054100002449042034601D1002010BD1C780130A7
:105420008C42F6D1184610BD884210B501EB02033C
:1054300003D8421E99420CD110BD9842F9D281186E
:10544000D21AD34200D110BD13F8014D01F8014D1D
:10545000F7E711F8014B02F8014FEBE738B50546C5
:10546000002943D051F8043C0C1F002BB8BFE418AE
:1054700000F0D4F81E4A1368104633B96360146014
:105480002846BDE8384000F0CAB8A3420BD92168CD
:105490006218934201BF1A685B6852182260636009
:1054A0000460EDE713465A680AB1A242FAD91968B6
:1054B0005818A0420BD12068014458188242196044
:1054C000DED110685268014419605A60D8E702D9E9
:1054D0000C232B60D4E7206821188A4201BF116891
:1054E00052680918216062605C60C9E738BD00BF7E
:1054F000342B002070B5CD1C25F0030508350C2D8C
:1055000038BF0C25002D064601DBA94203D90C2328
:105510003360002070BD00F081F8234A14682146F2
:1055200091B9224C23681BB9304600F067F820601F
:105530002946304600F062F8431C26D10C23304641
:10554000336000F06CF8E4E70B685B1B1AD40B2B9C
:105550000FD90B60CC18CD50304600F060F804F144
:105560000B00231D20F00700C31A1BD05A42E25043
:1055700070BD8C420BBF63684B681360636018BFDB
:105580000C46E9E70C464968CAE7C41C24F003044A
:10559000A04205D0211A304600F030F80130CDD0BD
:1055A0002560D9E770BD00BF342B0020382B0020C8
:1055B000F8B5074614460E4621B91146BDE8F84035
:1055C000FFF798BF22B9FFF749FF25462846F8BDE7
:1055D00000F026F884420FD921463846FFF78AFFAB
:1055E00005460028F2D031462246FFF7EFFB314650
:1055F0003846FFF733FFE9E73546E7E738B50023DC
:10560000054C05460846236000F014F8431C02D1FF
:10561000236803B12B6038BDC83C00207047704739
:1056200051F8040C0028A0F10400BCBF0B58C018AE
:1056300070470000044B0246196809B90349196014
:10564000186802441A6070473C2B0020CC3C0020B4
:10565000F8B500BFF8BC08BC9E467047F8B500BF5F
:08566000F8BC08BC9E4670472F
:1056680002030405060708090A0B0C0D0E0F10109B
:1056780002030405060708090A0B0C0D0E0F10108B
:10568800256C750A000000000000000000010203FC
:1056980004060708090000000001020304000201D3
:1056A8000243444320436F6E6669670043444320C6
:1056B800496E746572666163650053544D6963721F
:1056C8006F656C656374726F6E6963730053544DD4
:1056D8003332205669727475616C20436F6D506F58
:1056E800727400303030303030303030303141007A
:1056F800232D302B2000686C4C00656667454647B3
:105708000030313233343536373839414243444535
:1057180046003031323334353637383961626364A4
:0457280065660000B2
:04572C00350100083B
:04573000110100085B
:1057340001000000100000006B3400083134000840
:10574400C933000800000000413300082F3300086B
:105754009933000800000000000000000000000071
:105764007533000869330008813300088D3300085D
:1057740009024300020100C03209040000010202D0
:105784000100052400100105240100010424020283
:10579400052406000107058203080010090401001E
:1057A400020A00000007050102400000070581020B
:1057B4004000000009024300020100C03209040055
:1057C400000102020100052400100105240100016A
:1057D40004240202052406000107058203080010C0
:1057E40009040100020A000000070501020002008A
:1057F40007058102000200000A06000200000040C2
:105804000100000009074300020104C0320904003A
:105814000001020201000524001001052401000119
:10582400042402020524060001070582030800FF80
:1058340009040100020A00000007050102400000FB
:10584400070581024000000100A24A04A54900089E
:10585400594900085D49000861490008954C000851
:10586400A14C0008AD4C0008C94C0008E54C0008E8
:10587400014D00081D4D0008120100020202004003
:1058840083044057000201020301000004030904D9
:10589400640100200000000000000000000000007F
:1058A40000000000000000000000000000000000F4
:1058B40000000000000000000000000000000000E4
:1058C40000000000000000000000000000000000D4
:1058D40000000000000000000000000000000000C4
:1058E40000000000000000000000000000000000B4
:0458F40000000000B0
:0400000508004D3969
:00000001FF
